{
  "contractName": "Conference",
  "abi": [
    {
      "constant": true,
      "inputs": [
        {
          "name": "",
          "type": "address"
        }
      ],
      "name": "registrantsPaid",
      "outputs": [
        {
          "name": "",
          "type": "uint256"
        }
      ],
      "payable": false,
      "stateMutability": "view",
      "type": "function"
    },
    {
      "constant": true,
      "inputs": [],
      "name": "organizer",
      "outputs": [
        {
          "name": "",
          "type": "address"
        }
      ],
      "payable": false,
      "stateMutability": "view",
      "type": "function"
    },
    {
      "constant": false,
      "inputs": [
        {
          "name": "recipient",
          "type": "address"
        },
        {
          "name": "amount",
          "type": "uint256"
        }
      ],
      "name": "refundTicket",
      "outputs": [],
      "payable": false,
      "stateMutability": "nonpayable",
      "type": "function"
    },
    {
      "constant": false,
      "inputs": [],
      "name": "destroy",
      "outputs": [],
      "payable": false,
      "stateMutability": "nonpayable",
      "type": "function"
    },
    {
      "constant": false,
      "inputs": [
        {
          "name": "newquota",
          "type": "uint256"
        }
      ],
      "name": "changeQuota",
      "outputs": [],
      "payable": false,
      "stateMutability": "nonpayable",
      "type": "function"
    },
    {
      "constant": true,
      "inputs": [],
      "name": "quota",
      "outputs": [
        {
          "name": "",
          "type": "uint256"
        }
      ],
      "payable": false,
      "stateMutability": "view",
      "type": "function"
    },
    {
      "constant": true,
      "inputs": [],
      "name": "numRegistrants",
      "outputs": [
        {
          "name": "",
          "type": "uint256"
        }
      ],
      "payable": false,
      "stateMutability": "view",
      "type": "function"
    },
    {
      "constant": false,
      "inputs": [],
      "name": "buyTicket",
      "outputs": [
        {
          "name": "success",
          "type": "bool"
        }
      ],
      "payable": false,
      "stateMutability": "nonpayable",
      "type": "function"
    },
    {
      "inputs": [],
      "payable": false,
      "stateMutability": "nonpayable",
      "type": "constructor"
    },
    {
      "anonymous": false,
      "inputs": [
        {
          "indexed": false,
          "name": "_from",
          "type": "address"
        },
        {
          "indexed": false,
          "name": "_amount",
          "type": "uint256"
        }
      ],
      "name": "Deposit",
      "type": "event"
    },
    {
      "anonymous": false,
      "inputs": [
        {
          "indexed": false,
          "name": "_to",
          "type": "address"
        },
        {
          "indexed": false,
          "name": "_amount",
          "type": "uint256"
        }
      ],
      "name": "Refund",
      "type": "event"
    }
  ],
  "bytecode": "0x6060604052341561000f57600080fd5b336000806101000a81548173ffffffffffffffffffffffffffffffffffffffff021916908373ffffffffffffffffffffffffffffffffffffffff1602179055506101f460038190555060006002819055506106438061006f6000396000f30060606040526004361061008e576000357c0100000000000000000000000000000000000000000000000000000000900463ffffffff16806313381fbf1461009357806361203265146100e0578063705099b91461013557806383197ef014610177578063a977c71e1461018c578063cebe09c9146101af578063ec3a6f73146101d8578063edca914c14610201575b600080fd5b341561009e57600080fd5b6100ca600480803573ffffffffffffffffffffffffffffffffffffffff1690602001909190505061022e565b6040518082815260200191505060405180910390f35b34156100eb57600080fd5b6100f3610246565b604051808273ffffffffffffffffffffffffffffffffffffffff1673ffffffffffffffffffffffffffffffffffffffff16815260200191505060405180910390f35b341561014057600080fd5b610175600480803573ffffffffffffffffffffffffffffffffffffffff1690602001909190803590602001909190505061026b565b005b341561018257600080fd5b61018a610433565b005b341561019757600080fd5b6101ad60048080359060200190919050506104c4565b005b34156101ba57600080fd5b6101c261052a565b6040518082815260200191505060405180910390f35b34156101e357600080fd5b6101eb610530565b6040518082815260200191505060405180910390f35b341561020c57600080fd5b610214610536565b604051808215151515815260200191505060405180910390f35b60016020528060005260406000206000915090505481565b6000809054906101000a900473ffffffffffffffffffffffffffffffffffffffff1681565b60008060009054906101000a900473ffffffffffffffffffffffffffffffffffffffff1673ffffffffffffffffffffffffffffffffffffffff163373ffffffffffffffffffffffffffffffffffffffff161415156102c85761042e565b81600160008573ffffffffffffffffffffffffffffffffffffffff1673ffffffffffffffffffffffffffffffffffffffff16815260200190815260200160002054141561042d57309050818173ffffffffffffffffffffffffffffffffffffffff163110151561042c578273ffffffffffffffffffffffffffffffffffffffff166108fc839081150290604051600060405180830381858888f19350505050506000600160008573ffffffffffffffffffffffffffffffffffffffff1673ffffffffffffffffffffffffffffffffffffffff16815260200190815260200160002081905550600260008154809291906001900391905055507fbb28353e4598c3b9199101a66e0989549b659a59a54d2c27fbb183f1932c8e6d8383604051808373ffffffffffffffffffffffffffffffffffffffff1673ffffffffffffffffffffffffffffffffffffffff1681526020018281526020019250505060405180910390a15b5b5b505050565b6000809054906101000a900473ffffffffffffffffffffffffffffffffffffffff1673ffffffffffffffffffffffffffffffffffffffff163373ffffffffffffffffffffffffffffffffffffffff1614156104c2576000809054906101000a900473ffffffffffffffffffffffffffffffffffffffff1673ffffffffffffffffffffffffffffffffffffffff16ff5b565b6000809054906101000a900473ffffffffffffffffffffffffffffffffffffffff1673ffffffffffffffffffffffffffffffffffffffff163373ffffffffffffffffffffffffffffffffffffffff1614151561051f57610527565b806003819055505b50565b60035481565b60025481565b600060035460025410151561054e5760009050610614565b34600160003373ffffffffffffffffffffffffffffffffffffffff1673ffffffffffffffffffffffffffffffffffffffff168152602001908152602001600020819055506002600081548092919060010191905055507fe1fffcc4923d04b559f4d29a8bfc6cda04eb5b0d3c460751c2402c5c5cc9109c3334604051808373ffffffffffffffffffffffffffffffffffffffff1673ffffffffffffffffffffffffffffffffffffffff1681526020018281526020019250505060405180910390a1600190505b905600a165627a7a723058206ea2547854fd1ec9cc8c65c2e5635d069079085231bc0d76de599cae20fa33e80029",
  "source": "contract Conference { \r\n  address public organizer;\r\n  mapping (address => uint) public registrantsPaid;\r\n  uint public numRegistrants;\r\n  uint public quota;\r\n  // so you can log these events\r\n  event Deposit(address _from, uint _amount); \r\n  event Refund(address _to, uint _amount);\r\n  function Conference() { // Constructor\r\n    organizer = msg.sender;\r\n    quota = 500;\r\n    numRegistrants = 0;\r\n  }\r\n  function buyTicket() public returns (bool success) { \r\n    if (numRegistrants >= quota) { return false; } // see footnote\r\n     registrantsPaid[msg.sender] = msg.value;\r\n     numRegistrants++;\r\n     Deposit(msg.sender, msg.value);\r\n     return true;\r\n  }\r\n  function changeQuota(uint newquota) public {\r\n    if (msg.sender != organizer) { return; }\r\n    quota = newquota;\r\n  }\r\n  function refundTicket(address recipient, uint amount) public {\r\n    if (msg.sender != organizer) { return; }\r\n    if (registrantsPaid[recipient] == amount) {\r\n      address myAddress = this;\r\n      if (myAddress.balance >= amount) {\r\n        recipient.send(amount);\r\n        registrantsPaid[recipient] = 0;\r\n        numRegistrants--;\r\n        Refund(recipient, amount);\r\n      }\r\n     }\r\n  }\r\n  function destroy() { // so funds not locked in contract forever\r\n    if (msg.sender == organizer) {\r\n      suicide(organizer); // send funds to organizer\r\n    }\r\n  }\r\n}",
  "sourcePath": "C:\\Users\\rodrigo\\Desktop\\prototipo\\voting\\contracts\\Conferencia.sol",
  "compiler": {
    "name": "solc",
    "version": "0.4.18+commit.9cf6e910.Emscripten.clang"
  },
  "schemaVersion": "1.0.1",
  "updatedAt": "2018-01-03T17:48:11.335Z"
}