{
  "contractName": "Transferencia",
  "abi": [
    {
      "constant": true,
      "inputs": [],
      "name": "Vendedor",
      "outputs": [
        {
          "name": "",
          "type": "address"
        }
      ],
      "payable": false,
      "stateMutability": "view",
      "type": "function"
    },
    {
      "constant": true,
      "inputs": [],
      "name": "value",
      "outputs": [
        {
          "name": "",
          "type": "uint256"
        }
      ],
      "payable": false,
      "stateMutability": "view",
      "type": "function"
    },
    {
      "constant": true,
      "inputs": [],
      "name": "Comprador",
      "outputs": [
        {
          "name": "",
          "type": "address"
        }
      ],
      "payable": false,
      "stateMutability": "view",
      "type": "function"
    },
    {
      "constant": false,
      "inputs": [],
      "name": "transaccion",
      "outputs": [],
      "payable": false,
      "stateMutability": "nonpayable",
      "type": "function"
    }
  ],
  "bytecode": "0x6080604052600a600055732f9c8d2367ac65e8c55c604e59499464e75bbe85600160006101000a81548173ffffffffffffffffffffffffffffffffffffffff021916908373ffffffffffffffffffffffffffffffffffffffff160217905550737fbc7d96f8f307cdfaac6c14701ed5a7e80c750c600260006101000a81548173ffffffffffffffffffffffffffffffffffffffff021916908373ffffffffffffffffffffffffffffffffffffffff1602179055503480156100bf57600080fd5b506102c2806100cf6000396000f300608060405260043610610062576000357c0100000000000000000000000000000000000000000000000000000000900463ffffffff1680631e18a8ca146100675780633fa4f245146100be5780637499854e146100e9578063e565ac9214610100575b600080fd5b34801561007357600080fd5b5061007c610157565b604051808273ffffffffffffffffffffffffffffffffffffffff1673ffffffffffffffffffffffffffffffffffffffff16815260200191505060405180910390f35b3480156100ca57600080fd5b506100d361017d565b6040518082815260200191505060405180910390f35b3480156100f557600080fd5b506100fe610183565b005b34801561010c57600080fd5b50610115610270565b604051808273ffffffffffffffffffffffffffffffffffffffff1673ffffffffffffffffffffffffffffffffffffffff16815260200191505060405180910390f35b600160009054906101000a900473ffffffffffffffffffffffffffffffffffffffff1681565b60005481565b600260009054906101000a900473ffffffffffffffffffffffffffffffffffffffff1673ffffffffffffffffffffffffffffffffffffffff166108fc6000549081150290604051600060405180830381858888f193505050501580156101ed573d6000803e3d6000fd5b50600160009054906101000a900473ffffffffffffffffffffffffffffffffffffffff1673ffffffffffffffffffffffffffffffffffffffff166108fc3073ffffffffffffffffffffffffffffffffffffffff16319081150290604051600060405180830381858888f1935050505015801561026d573d6000803e3d6000fd5b50565b600260009054906101000a900473ffffffffffffffffffffffffffffffffffffffff16815600a165627a7a723058202b6c107722858f20bd71ba714fda3f6ee42c3b6252766acd48552d1dc39e91bf0029",
  "source": "pragma solidity >=0.4.22 <0.6.0;\r\ncontract Transferencia{\r\n    uint public value= 10;\r\n    address public Vendedor= 0x2f9c8D2367aC65e8C55C604E59499464e75bBe85;\r\n    address public  Comprador= 0x7fBc7D96F8f307CdFaaC6C14701Ed5a7E80c750C;\r\n \r\n function transaccion(){\r\n    Comprador.transfer(value);\r\n    Vendedor.transfer(address(this).balance);\r\n }\r\n}",
  "sourcePath": "C:\\Users\\rodrigo\\Desktop\\prototipo\\voting\\contracts\\Transferencia.sol",
  "compiler": {
    "name": "solc",
    "version": "0.4.24+commit.e67f0147.Emscripten.clang"
  },
  "schemaVersion": "2.0.0",
  "updatedAt": "2018-10-19T21:18:19.393Z"
}